:020000040800F2
:100000004805002045010008D71D00081B190008FD
:10001000D51D0008B10100085D25000800000000A2
:10002000000000000000000000000000EB1F0008BE
:10003000B301000800000000E91F0008ED1F0008E0
:100040005F0100085F0100085F0100085F01000810
:100050005F0100085F010008B50100085F010008AA
:100060005F0100085F0100085F0100085F010008F0
:100070005F0100085F0100085F0100085F010008E0
:100080005F0100085F0100085F0100085F010008D0
:100090005F0100085F0100085F0100085F010008C0
:1000A0005F0100085F0100085F0100085F010008B0
:1000B000512000085F0100085F0100085F0100088F
:1000C0005F0100085F0100085F0100085F01000890
:1000D0005F010008512500085F0100085F0100086A
:1000E0005F0100085F0100085F0100085F01000870
:1000F0005F0100085F0100085F0100085F01000860
:100100005F0100085F0100085F0100085F0100084F
:10011000F52200085F0100085F0100085F01000888
:100120005F0100085F0100085F0100085F0100082F
:10013000DFF80CD000F02AF800480047F12500084D
:10014000480500200648804706480047FEE7FEE7CE
:10015000FEE7FEE7FEE7FEE7FEE7FEE7FEE7FEE777
:100160004F20000831010008D2B201E000F8012B55
:10017000491EFBD270470022F6E710B513460A4627
:1001800004461946FFF7F0FF204610BD064C074D08
:1001900006E0E06840F0010394E807009847103457
:1001A000AC42F6D3FFF7C8FFB02E0008D02E0008EF
:1001B000FEE77047012000F0D5B872B6FEE710B533
:1001C00090F821100022022905D00421816380F8D3
:1001D0002020012010BD01680B6823F00E030B6086
:1001E00001680B6823F001030B6090F84030C46B8A
:1001F000012101FA03F3636080F8211080F82020C8
:10020000104610BD2DE9F05F90F82110002402295E
:1002100003D004218163012485E001680A6822F08B
:100220000E020A6001680A6822F001020A603F4E6D
:100230003E4FB215DFF8F4C0DFF8F090DFF8ECA025
:10024000DFF8E8B0DFF8E4E00168783F1301150259
:10025000ACF1640CA9F15009AAF13C0AABF1280BEE
:10026000AEF1140E4FF48018B14227D9B9420ED026
:10027000614512D049451DD0514518D0594518D077
:10028000714501D1424615E0294EB14201D101220A
:1002900010E0274E1436B14201D110220AE0244E5C
:1002A0002836B14206D0224A3C32914201D11A4648
:1002B00000E02A461E49091F0A602BE0B94213D00C
:1002C000614517D0494522D051451DD059451DD013
:1002D000714501D142461AE0B14202D14FF080721D
:1002E00015E0134EB14201D1012210E0104E143638
:1002F000B14201D110220AE00D4E2836B14206D09B
:100300000B4A3C32914201D11A4600E02A46074985
:1003100080394A60012180F82110002180F82010E6
:10032000416B01B188472046BDE8F09F8000024044
:100330000804024070B5044600F022F90546601C2E
:1003400002D004480078044400F01AF9401BA0428F
:10035000FAD370BD0400002001A002F001B9000032
:1003600031313100044910B50A68024202D00860F8
:10037000FFF7F2FF10BD0000140401402DE9F84F13
:10038000DFF8C8910024A9F1040B23460F2709F1D7
:10039000040AABF1040ED1E00125A54006EA0502EE
:1003A000AA4276D1DFF8A8C14E68A6EB0C086645D4
:1003B0002BD00DDC032E34D005DC36B3012E19D042
:1003C000022E2FD11BE0112E16D0122E2AD119E0A9
:1003D000B8F5881F19D006DCB8F5803F15D0B8F500
:1003E000801F1FD111E0B8F5001F0ED0B8F5041F13
:1003F00018D10AE0CB6815E0CB681B1D12E0CB6872
:1004000008330FE0CB680C330CE08B682BB1012B69
:100410004FF0080303D0456104E0042302E00561C6
:1004200000E00023FF2A01D8064601E000F104069F
:100430004FEA840501D9A5F12005D6F8008007FA16
:1004400005FC28EA0C0803FA05F548EA0508C6F891
:1004500000804D68ED0070D53E4DAE6946F0010656
:10046000AE61AD6924F0030605F0010500953A4D33
:1004700006EB050CDCF80850A607360F07FA06F85D
:1004800025EA0805DFF8D480404503D14FF0000885
:1004900025E052E0DFF8C880404502D14FF0010866
:1004A0001DE0DFF8C080404502D14FF0020816E0A1
:1004B000DFF8B480404502D14FF003080FE0DFF8C9
:1004C000AC80404502D14FF0040808E0DFF8A0807E
:1004D000404502D14FF0050801E04FF0060808FA48
:1004E00006F848EA0508CCF808804D68D9F800609D
:1004F000ED024D4601D5164300E096432E604D684F
:10050000DAF80060AD02554601D5164300E0964387
:100510002E604D68DBF80060AD035D4601D51643E3
:1005200000E096432E604D68DEF80060ED037546EE
:1005300001D5164300E096432E60641C0A681646F7
:10054000E2407FF429AFBDE8F88F000008040140C5
:10055000000011100010024000000140000801409E
:10056000000C01400010014000140140001801403F
:10057000001C01400AB1016170470904FBE700005B
:1005800001488068704700000400002070B5040036
:1005900025D094F83D00002520B984F83C50204631
:1005A00000F050F9242084F83D002068016821F013
:1005B000010101602068016841F400410160206888
:1005C000016821F40041016000F098FA4D4A616829
:1005D000914201D84C4900E04C49884201D20120A7
:1005E00070BD4B492368B0FBF1F15E6826F03F0611
:1005F0000E435E606368934206D94FF49673594385
:100600004FF47A73B1FBF3F12368491C1E6A26F09C
:100610003F06314319626168914210D84900401E7B
:10062000B0FBF1F2521CC2F30B02042A01D20420E7
:1006300022E0B0FBF1F0401CC0F30B001CE0A2680C
:10064000F2B301EBC10303EB0116431EB3FBF6F358
:100650005B1C43F480431B0549D092B301EBC102FC
:1006600002EB0111401EB0FBF1F0401CC0F30B0087
:1006700040F4804040F400402168CA694CF6FF73A2
:100680009A431043C861D4E9071001432068026807
:1006900022F0C00211430160D4E903010143206844
:1006A000826848F2FF339A4311438160D4E905011F
:1006B00008432168CA6822F0FF021043C86001E0C5
:1006C0000EE016E02068016841F001010160256438
:1006D000202084F83D00256384F83E50002070BD42
:1006E00001EB4106431EB3FBF6F35B1CB3E70120AD
:1006F000C2E701EB4101401EB0FBF1F0401CC0F32A
:100700000B00B7E7A086010080841E0000093D00B1
:1007100040420F002DE9FF4F83B09A46DDE9119763
:1007200093460446DDF84080FFF72AFF054694F81B
:100730003D0020287FD11923012240492046009501
:1007400001F084F9002876D194F83C00012872D099
:10075000012084F83C0020680168C90703D10168C2
:1007600041F0010101602068016821F4006101602D
:10077000212084F83D00402084F83E0000262664B5
:10078000C4F82480A4F82A90608D20852C48E0626B
:10079000CDE9007553465A462046049901F0D6F833
:1007A00070B930E02A463946204601F0F5F958B1D3
:1007B000206C042804D12068016841F400710160B4
:1007C000012007B0BDE8F08F606A216800780861F9
:1007D000606A401C6062218D491E89B22185628D4C
:1007E000521E628522685369DB435B070BD469B1F3
:1007F00000781061606A401C6062208D401E208578
:10080000608D401E6085208D0028CBD12A46394658
:10081000204601F0EFF80028CAD154F83D0B0168DA
:1008200041F400710160202004F81E09E677667724
:100830000020C6E7FFE70220C3E700000200100027
:100840000000FFFF10B586B00021009101910291D8
:10085000039100680F4988421AD10F4CA06940F0FB
:100860000800A061A069694600F008000490C0205B
:10087000009012200190032003900848FFF77EFDAE
:10088000E06940F40010E061E06900F400100490B9
:1008900006B010BD0054004000100240000C0140A2
:1008A000024881680278114481607047040000208A
:1008B000074810B5016841F010010160032000F005
:1008C00075F80F2000F006F800F024F8002010BDA5
:1008D0000020024070B50D4D04464FF47A7128781F
:1008E000B1FBF0F00A490968B1FBF0F000F0DCFA66
:1008F00048B9102C07D200222146501E00F036F8CD
:1009000000206C6070BD012070BD0000040000205C
:10091000100000200C4808B5816941F00101816197
:10092000816901F001010091C16941F08051C1610B
:10093000C06900F0805000900448416821F0E061F7
:1009400041F00071416008BD00100240000001400C
:10095000002809DB00F01F020121914040098000BE
:1009600000F1E020C0F8001170470000F0B40E4B19
:100970001B680C46C3F30223C3F10705042D00D9FD
:100980000425191D072901D2002300E0DB1E0126E2
:1009900006FA05F1491E214099409E40761E1640F8
:1009A0003143F0BC01F0E4BD0CED00E0064900F07D
:1009B000070208684FF6FF03184040EA0220034A86
:1009C00010430860704700000CED00E00000FA05DD
:1009D0002DE9F0470F46050061D0434E306800F026
:1009E0000700B84209D2306820F007003843306071
:1009F000306800F00700B84251D128683B4C8107AD
:100A000012D5400703D5606840F4E0606060287844
:100A1000000703D5606840F4605060606068A968B2
:100A200020F0F000084360602878C00728D068688C
:100A3000012810D02168022810D0890700292EDA59
:100A4000616821F0030101436160FFF799FD804671
:100A500041F288390DE021688903EFE78901EDE76C
:100A6000FFF78EFDA0EB0801494502D90320BDE840
:100A7000F0876068696800F00C00B0EB810FEFD17F
:100A8000306800F00700B8420BD9306820F007004A
:100A900038433060306800F00700B84201D00120D0
:100AA000E5E72878400705D56068E96820F4E0604C
:100AB000084360602878000706D56068296920F43B
:100AC000605040EAC100606000F038F86168084A90
:100AD000C1F30311515CC84006490860064800682C
:100AE000FFF7F8FE0020C2E700200240001002409D
:100AF0007E26000810000020080000200448054958
:100B000000684968044AC1F30221515CC84070473B
:100B100010000020001002408E26000804480549FD
:100B200000684968044AC1F3C221515CC84070475B
:100B300010000020001002408E2600080E4A516866
:100B40000E4801F00C03042B11D0082B0FD10C48D8
:100B5000C1F38343C903C05C0AD55168084AC1F395
:100B60004041921E515C054A5043B0FBF1F0704782
:100B700004494843704700000010024000127A0008
:100B80006E26000800093D002DE9F84F040070D0E2
:100B90002078C04DC00749D06868C0F381000128A3
:100BA00007D06868C0F38100022809D16868C003D3
:100BB00006D52868800339D560680028E7D035E07D
:100BC0006068B0F5803F0BD010B1B0F5A02F11D008
:100BD000286820F480302860286820F4802002E013
:100BE000286840F480302860606890B1FFF7C8FC46
:100BF00006460AE0286840F480202860F0E700BF3D
:100C0000FFF7BEFC801B642873D828688003F7D5E3
:100C10000CE0FFF7B5FC064605E000BFFFF7B0FCAF
:100C2000801B6428F0D828688003F7D420789A4E77
:100C300080074FF001094FF0000839D5686810F0BF
:100C40000C0F07D06868C0F38100022809D16868DA
:100C5000C00306D42868800714D52069012808D16C
:100C600010E02069B0B1C6F80090FFF789FC074694
:100C700005E00AE1FFF784FCC01B0228C4D82868FD
:100C80008007F7D52868616920F0F80040EAC100C4
:100C900028600DE0C6F80080FFF772FC074604E00C
:100CA000FFF76EFCC01B022823D828688007F7D402
:100CB000207800072CD57948A169D9B1C0F80090F7
:100CC000FFF75EFC074604E0FFF75AFCC01B022852
:100CD0000FD8686A8007F7D571484FF4FA51006859
:100CE000B0FBF1F0009000BF0098411E0091FAD2D5
:100CF0000EE080E0C0F80080FFF742FC074604E009
:100D0000FFF73EFCC01B022875D8686A8007F7D43D
:100D10002078400760D5E8690027C00008D4E8695A
:100D200040F08050E861E869012700F080500090B1
:100D30005C480168C90513D40168834641F4807199
:100D40000160FFF71DFC824606E000BFFFF718FCBC
:100D5000A0EB0A0064284ED8DBF80000C005F5D5EA
:100D6000E06801280AD008B1052813D0286A20F0CD
:100D700001002862286A20F0040002E0286A40F09E
:100D800001002862E06841F2883B98B1FFF7F8FB68
:100D900082460BE0286A40F004002862EEE700BFBC
:100DA000FFF7EEFBA0EB0A0159455AD8286A8007E5
:100DB000F6D50CE0FFF7E4FB824605E0FFF7E0FB29
:100DC000A0EB0A0159454CD8286A8007F6D41FB118
:100DD000E86920F08050E861E06988B36968C1F390
:100DE0008101022944D00228C6F8608004D0FFF7B0
:100DF000C7FB044638E034E0FFF7C2FB074604E0D7
:100E0000FFF7BEFBC01B02282BD828688001F7D44F
:100E1000206AB0F5803F05D16868A16820F40030F1
:100E200008436860D4E908010843696821F4741133
:100E300008436860C6F86090FFF7A2FB044606E02E
:100E400025E000BFFFF79CFB001B022809D828689B
:100E50008001F7D51BE000BFFFF792FB001B0228C3
:100E600002D90320BDE8F88F28688001F4D40EE091
:100E70000128F7D06868226A00F48031914204D1D9
:100E8000616A00F47010884201D00120EAE7002076
:100E9000E8E70000001002400000424280044242A5
:100EA000100000200070004010B5401EB0F1807F9F
:100EB00001D3012010BD4FF0E02460610F216017C5
:100EC00001F056FB0020A06107202061002010BD2A
:100ED0007047704770B590F83C20012A2CD001244F
:100EE00080F83C40022280F83D2003685A689D68E3
:100EF00022F070060A6832435A60104B02689A4228
:100F00000ED00F4B9A420BD0B2F1804F08D00D4B50
:100F10009A4205D00C4B9A4202D00C4B9A4204D113
:100F2000496825F080031943916080F83D40002115
:100F300080F83C10084670BD022070BD002C0140B6
:100F4000003401400004004000080040000C004054
:100F500010B5040003D094F83D0010B107E0012063
:100F600010BD002084F83C00204600F01FF802204D
:100F700084F83D00211D206801F070F8012084F8FC
:100F8000460084F83E0084F83F0084F8400084F86E
:100F9000410084F8420084F8430084F8440084F857
:100FA000450084F83D00002010BD000008B5006831
:100FB000B0F1804F12D10A48C16941F00101C1610D
:100FC000C069002200F00100009011461C20FFF7CC
:100FD000CDFCBDE808401C20FFF7BABC08BD0000EE
:100FE0000010024090F83D10012901D00120704707
:100FF000022180F83D100168CA6842F00102CA600F
:1010000000680E4988420ED00D4988420BD0B0F1DD
:10101000804F08D00B49884205D00B49884202D046
:101020000A49884204D1816801F00701062903D0EA
:10103000016841F00101016000207047002C01406F
:10104000003401400004004000080040000C004053
:1010500070B5044690F83C000025012817D0012601
:1010600084F83C60022084F83D002068826822F009
:10107000770222F47F4282600868502838D00DDC65
:1010800020284FD005DC90B3102811D14AE002206F
:1010900070BD302846D040280AD13BE060282FD0D0
:1010A00070280DD0B0F5805F03D0B0F5005F12D08E
:1010B000012584F83D60002084F83C00284670BD7E
:1010C000CB68D1E90121206801F01BF82068816814
:1010D00041F0770109E0CB68D1E90121206801F0F6
:1010E00010F82068816841F480418160E1E719E0EF
:1010F000CA684968206801F0D9F85021206806E0E4
:10110000CA684968206801F0E2F86021206801F0AF
:1011100002F8CEE7CA684968206801F0C7F84021A4
:101120002068F4E7226801461046F0E7704770B582
:101130000446006801694FF00005C943890715D4CA
:10114000C168C943890711D4E91E016101202077D4
:10115000206880698007204602D0FFF7E7FF04E09F
:1011600000F0BAF8204600F04CF9257720680169B4
:10117000C943490717D4C168C943490713D46FF05D
:1011800004010161022020772068806910F4407F0B
:10119000204602D0FFF7CAFF04E000F09DF8204689
:1011A00000F02FF9257720680169C943090716D493
:1011B000C168C943090712D46FF008010161042016
:1011C00020772068C0698007204602D0FFF7AEFF75
:1011D00004E000F081F8204600F013F9257720683C
:1011E0000169C943C90617D4C168C943C90613D4E4
:1011F0006FF010010161082020772068C06910F4A9
:10120000407F204602D0FFF791FF04E000F064F831
:10121000204600F0F6F8257720680169C943C90720
:1012200008D1C168C943C90704D1891E016120469C
:1012300000F042F920680169C943090609D4C16870
:10124000C943090605D46FF0800101612046FFF70C
:101250003FFE20680169C943490609D4C168C943F2
:10126000490605D46FF040010161204600F02CF9D9
:1012700020680169C94389060BD4C168C94389063E
:1012800007D46FF0200101612046BDE87040FFF7F0
:1012900020BE70BD00B585B0002100910191029182
:1012A00003910068B0F1804F10D10948816941F085
:1012B000040181618069694600F004000490022005
:1012C0000090019003900348FFF758F805B000BD67
:1012D0000010024000080140704770B5044690F8C5
:1012E0003C0000260D4601280FD0012084F83C0068
:1012F0006AB1042A1DD0082A2FD00C2A3FD001261B
:10130000002084F83C00304670BD022070BD20688B
:1013100000F00AFF2068816941F0080181612068BE
:10132000816921F004018161206881692A69114382
:1013300011E0206800F028FF2068816941F4006115
:1013400081612068816921F48061816120688169FF
:101350002A6941EA02218161D2E7206800F04AFF50
:101360002068C16941F00801C1612068C16921F0AC
:101370000401C1612068C1692A69114311E0206834
:1013800000F06CFF2068C16941F40061C161206810
:10139000C16921F48061C1612068C1692A6941EA9B
:1013A0000221C161ACE710B5040003D094F83D0000
:1013B00010B107E0012010BD002084F83C00204659
:1013C00000F01EF8022084F83D00211D206800F086
:1013D00045FE012084F8460084F83E0084F83F0072
:1013E00084F8400084F8410084F8420084F8430007
:1013F00084F8440084F8450084F83D00002010BDC6
:101400007047704710B50446022249B104290ED036
:10141000082913D094F84100012816D0012010BDEE
:1014200094F83E000128F9D184F83E200FE094F8AA
:101430003F000128F2D184F83F2008E094F84000F2
:101440000128EBD184F8402001E084F841200122FA
:10145000206800F049FE13492068134A884201D0F1
:10146000904203D1436C43F40043436420688842B4
:101470000DD090420BD0B0F1804F08D00B4988427C
:1014800005D00B49884202D00A49884204D18168BC
:1014900001F00701062903D0016841F00101016054
:1014A000002010BD002C0140003401400004004029
:1014B00000080040000C004002480178491C0170FF
:1014C0007047000000000020704770477047000020
:1014D000F8B5016804460868CA684B6910F00F0F38
:1014E0004FF0000559D003F0010602F4907737431E
:1014F00065D0C10705D0D10503D5616C41F001016C
:101500006164410705D5D90703D0616C41F0020140
:101510006164810705D5D90703D0616C41F00401EE
:101520006164010707D502F02001314303D0616CEB
:1015300041F008016164616C00293AD0800604D54D
:10154000900602D5204600F00AFF20684069616CD1
:10155000C0F38010090700D460B3204600F0D8FE25
:1015600020684069400621D52068143050E8001FEB
:1015700021F0400140E80012002AF5D1E06BA8B14B
:101580006D494163E06BFEF73DFE002811D0E06B32
:10159000416B01B0BDE8F040084783060FD59306C4
:1015A0000DD52046BDE8F84000F0D9BE2046FFF733
:1015B0008DFFF8BD2046FFF789FF6564F8BD266BF7
:1015C0002023012E7CD1C6067AD5D60678D50868A8
:1015D0004868009048694FF00206400640D5E16B2C
:1015E000086840680004000CE8D0A28D8242E5D96A
:1015F000E085886920282DD020680C3050E8001F35
:1016000021F4807140E80012002AF5D120681430DE
:1016100050E8001F21F0010140E80012002AF5D136
:101620002068143050E8001F21F0400140E800120B
:10163000002AF5D184F84230256320680C3050E848
:10164000001F21F0100140E80012002AF5D1E06BE4
:10165000FEF7B5FD6663A08DE18D401A81B22AE0E8
:10166000A08DE18D401A81B2E08D0028A6D000291E
:10167000A4D022680C3252E8000F20F4907042E8A7
:101680000007002FF5D12068143050E8002F22F019
:10169000010240E80027002FF5D184F8423025638D
:1016A00020680C3050E8002F22F0100240E80023A0
:1016B000002BF5D166632046FFF707FFF8BDFFE773
:1016C00005062BD5150629D594F841002128F5D11A
:1016D000A068B0F5805F01D12069B0B1206A411CDB
:1016E0002162216800784860E08C401E0004000CF4
:1016F000E084E3D12068C16821F08001C1602068E6
:10170000C16841F04001C160D8E7206A0088C0F399
:1017100008004860206A801C2062E5E74006CDD5BD
:101720005006CBD5CA68204622F04002CA6084F831
:10173000413000F0F1F8C1E70123000870B5040062
:1017400004D094F84100002510B106E0012070BDDE
:1017500084F84050204600F023F8242084F841000B
:101760002068C16821F40051C160204600F058FE95
:101770002068016921F4904101612068416921F0EC
:101780002A0141612068C16841F40051C16065646B
:10179000202084F8410084F842006563002070BD79
:1017A00070B586B0002400940194029403940368F9
:1017B0002E482D4E051502210322B34226D1C369BE
:1017C00043F40023C361C36903F4002304938369D2
:1017D00043F0100383618069CDE9005100F01000EF
:1017E000CDE90320224D69462846FEF7C7FDE814DF
:1017F000CDE90004694628460294FEF7BFFD0022A9
:1018000011463420FFF7B2F8342028E0194EB342D5
:1018100027D1836943F480438361836903F4804360
:101820000493836943F0040383618069039200F0A9
:10183000040004907015CDE900010F4E6946304652
:10184000FEF79CFDCDE90054694630460294FEF750
:1018500095FD002211462520FFF788F82520FFF787
:1018600077F806B070BD0000004C00400010024048
:1018700000100140003801400008014070472DE988
:10188000F843044690F841001F4616460D462028AE
:1018900002D00220BDE8F8837DB176B100206064FB
:1018A000212084F84100FEF76BFEA6848046E68482
:1018B000A068B0F5805F02D003E00120EAE720696C
:1018C00010B12E4600250EE000260CE080212046B7
:1018D00000F002FEA0B9AEB116F8010B2168486015
:1018E000E08C401EE084E08C43464FF000020097FD
:1018F0000028EBD14FF04001204600F0EDFD30B163
:101900000320C7E735F8020BC0F30800E6E7202004
:1019100084F841000020BDE77047FEE701684A698E
:10192000D24352050FD46FF480624A61002140F81F
:10193000301F202242738173026942F00402026167
:101940000173012070470020704700002DE9F84323
:10195000044600680D46DDE908970168984616467A
:1019600041F4807101604B4600224FF00111204686
:10197000009700F06BF848B120680068C00502D5F8
:101980004FF4007020640320BDE8F883216805F05F
:10199000FE0008613B464A461549204600F09EF885
:1019A00088B920684169806900903A4649462046D6
:1019B00000F0F2F848B1206C042804D120680168D6
:1019C00041F4007101600120DEE7F5B2B8F1010FCA
:1019D00009D02168300A08613A464946204600F09D
:1019E000DBF80028E7D1206805610020CCE7000083
:1019F0000200010070B516460D4604461EE0204662
:101A0000FFF78CFF08B1012070BD681C16D0FEF7EF
:101A1000B7FD801BA84200D885B920684069C04343
:101A200040070BD5002044F8300F20216173A073CC
:101A3000216941F0200121612073E4E720684069B9
:101A4000C0434007DBD4002070BD00002DE9F04703
:101A5000984617460D460446C1F30746DDF8209028
:101A60002AE000BFB8F1FF3F26D0FEF789FDA0EBCA
:101A70000901414502D8B8F1000F1DD12068012E9F
:101A800016D0806925EA00000004000C12D0002066
:101A9000B84211D1002044F8300F20216173A073A7
:101AA000216941F02001216120730120BDE8F08708
:101AB0004069E7E70120EBE72068012E0AD0806942
:101AC00025EA00000004000C06D00020B842C9D06E
:101AD0000020EBE74069F3E70120F7E72DE9F04745
:101AE000984616460D4604464FF000094FF0200A6E
:101AF000C1F3074723E020684069C043400515D47F
:101B00002068016841F40071016021686FF4806011
:101B10004861C4F8309084F83DA084F83E90216C70
:101B200041F00401216484F83C9021E0701C06D04F
:101B3000FEF726FDA0EB0800B04203D816B1012F36
:101B40001FD021E02068012F15D0806925EA000010
:101B50000004000C18D000BF44F8309F84F80DA09A
:101B600084F80E90216941F02001216184F80C90E5
:101B70000120BDE8F087406925EA00000004000C60
:101B8000EAD12068406901E02068806925EA000008
:101B90000004000CAFD1ECE770B516460D460446C4
:101BA0001EE02046FFF7BAFE08B1012070BD681C98
:101BB00016D0FEF7E5FC801BA84200D885B9206846
:101BC0004069C04300060BD5002044F8300F2021A7
:101BD0006173A073216941F0200121612073E4E762
:101BE00020684069C0430006DBD4002070BD0000BF
:101BF00070B586B0002420480094019402940394A8
:101C0000816941F004018161816901F0040104915D
:101C1000816941F008018161816901F00801049145
:101C2000816941F0100181618069144E00F010005B
:101C30000490002204213046FEF79CFC0125104848
:101C40000095CDE9010469460E48FEF797FB042094
:101C5000CDE900050220CDE9024069463046FEF795
:101C60008DFB002211460620FEF780FE0620FEF7BF
:101C70006FFE06B070BD000000100240000C014075
:101C800000001110000801400D4810B50B4901601B
:101C90000C49416000214FF480428160C0E9031289
:101CA00041618161C1610162FEF770FC002803D0CF
:101CB000BDE81040FEF781BA10BD0000005400409E
:101CC00018000020A086010010B58EB000240794F3
:101CD000089409940A940B941C2168460C94FEF70E
:101CE0004AFA1F484FF08041016041F61F41C0E9A8
:101CF00001146321C0E9031480218161FFF728F9F1
:101D000008B1FEF75AFA4FF48050079007A914481B
:101D1000FFF79EF908B1FEF750FA1148FFF743FBB1
:101D200008B1FEF74AFA0B940BA90D480C94FFF783
:101D3000D1F808B1FEF741FA6020CDE90004022095
:101D400002900422694604940548FFF7C6FA08B1D8
:101D5000FEF733FA0248FFF79DFA0EB010BD0000FF
:101D60006C0000200C4810B50A4901604FF4E131C5
:101D70004160002181600C22C160C0E904128161D0
:101D8000C161FFF7DBFC002803D0BDE81040FEF77F
:101D900014BA10BD004C0040B40000200C4810B52F
:101DA0000A4901604FF4E1314160002181600C2259
:101DB000C160C0E904128161C161FFF7BFFC002866
:101DC00003D0BDE81040FEF7F8B910BD003801405F
:101DD000FC000020FEE7FEE770B5002404F1B0002F
:101DE000C0B200F0DDF8002000F0DAF8102000F0BA
:101DF000D7F80025002000F0E5F86D1CEDB2802D2D
:101E0000F8D3641CE4B2082CE8D370BD10B54FF4CD
:101E10009670FEF78FFAAE2000F0C2F8002000F0B6
:101E2000BFF8102000F0BCF8402000F0B9F8B02056
:101E300000F0B6F8812000F0B3F88F2000F0B0F881
:101E4000A12000F0ADF8A62000F0AAF8A82000F02C
:101E5000A7F83F2000F0A4F8C82000F0A1F8D32094
:101E600000F09EF8002000F09BF8D52000F098F8D4
:101E7000802000F095F8D82000F092F8052000F0BE
:101E80008FF8D92000F08CF8F12000F089F8DA20E2
:101E900000F086F8122000F083F8DB2000F080F8D4
:101EA000302000F07DF800F004F8BDE81040FFF7A6
:101EB00093BF10B58D2000F073F8142000F070F877
:101EC000BDE81040AF2000F06BB80246012000E0F2
:101ED0005043491EFCD2704710B5B0300C46C0B21A
:101EE00000F05EF8102040EA141000F059F804F0F9
:101EF0000F00BDE8104000F053B800002DE9F04796
:101F00008046CF004000083F801E14464FF0FF3946
:101F1000F9B2C0B2FFF7E0FF002524010E4EA4F590
:101F200000746019305C00F04DF86D1CEDB2082DA6
:101F3000F7D309EB4800F9B2C0B2FFF7CDFF002597
:101F400060193044007A00F03DF86D1CEDB2082DA8
:101F5000F6D3BDE8F0870000BE2800082DE9F04761
:101F600000241D461646884681460A2713E0291B91
:101F70000A20491EFFF7A9FFB6FBF0F0B0FBF7F10E
:101F800007FB110208EB0400C1B248463032FFF7EC
:101F9000B5FF641CE4B2AC42E9D3BDE8F0870000B1
:101FA00001B584B00121642204A88DE807000B4626
:101FB000002278210248FEF7ADFB05B000BD00000D
:101FC0001800002001B584B00121642204A88DE826
:101FD00007000B46402278210248FEF79BFB05B024
:101FE00000BD00001800002070477047FEF758BC85
:101FF00030B58FB028216846FEF7BDF814210AA835
:10200000FEF7B9F801210804CDE90010002402947C
:1020100002250491CDE907504FF4E010099068467D
:10202000FEF7B2FD08B172B6FEE70F20CDE90A0552
:102030004FF48060CDE90C4002210AA80E94FEF70F
:10204000C7FC002801D072B6FEE70FB030BD704764
:102050000148FFF76CB800006C000020F0B5026882
:102060001C4B1D4D1D4E1E4F1E4C4FF0804C984278
:1020700009D0A04207D0604505D0A84203D0B042A5
:1020800001D0B84204D122F0700E4A6842EA0E0232
:10209000984209D0A04207D0604505D0A84203D09D
:1020A000B04201D0B84203D122F44075CA682A4335
:1020B0004D6922F080022A4302608A68C2620A687F
:1020C0008262984201D0A04201D1096901630121D5
:1020D0004161F0BD002C01400004004000080040B8
:1020E000000C00400034014010B501F01F03012135
:1020F000046A99408C430462016A9A401143016268
:1021000010BD10B5846842EA032224F47F440A43D8
:102110002243826010BD826822F070020A4342F0BE
:102120000701816070470000F0B5036A026A22F07F
:102130000102026242688469124E24F073050C6841
:102140002C4323F002058B682B430D4DA84201D090
:10215000B04205D123F00807CB683B4323F00403CA
:10216000A84201D0B04205D14D6922F44072154316
:102170008A692A4342608461496841630362F0BD11
:10218000002C014000340140F0B5026A036A23F0DC
:1021900010030362436884690D6824F4E64444EA4A
:1021A00005248D6822F0200242EA05120F4D104EE0
:1021B000A84201D0B04206D1CF6822F0800242EAA4
:1021C000071222F04002A84201D0B04207D14D6967
:1021D00023F4406343EA85038D6943EA8503436042
:1021E0008461496881630262F0BD0000002C0140F7
:1021F00000340140F0B5026A036A23F4807303627D
:102200004368C46922F4007224F073050C68124E0E
:102210002C438D6842EA05220E4DA84201D0B042FF
:1022200006D1CF6822F4006242EA072222F48062DB
:10223000A84201D0B04207D14D6923F4405343EA8C
:1022400005138D6943EA05134360C4614968C1639E
:102250000262F0BD002C01400034014030B5046A38
:10226000026A22F4805202624268C3690D6823F454
:10227000E64343EA05238D6824F4005444EA053418
:10228000084DA84202D0084DA84204D14D6922F45D
:10229000804242EA85124260C36149680164046277
:1022A00030BD0000002C01400034014010B5036A2D
:1022B000046A24F001040462846924F0F00444EA0E
:1022C000021423F00A020A438461026210BD10B5B1
:1022D000036A046A24F010040462846923F0A003F2
:1022E00024F4704444EA023243EA0111826101623B
:1022F00010BD00000148FFF7EBB80000B40000205B
:1023000010B5406A0021C185C184FFF7DFF810BD18
:1023100001680C3151E8002F22F4907241E800234B
:10232000002BF5D10168143151E8002F22F0010291
:1023300041E80023002BF5D1016B012909D1016887
:102340000C3151E8002F22F0100241E80023002B4D
:10235000F5D1202180F8421000210163704708B5B3
:1023600090F84210222901D0022008BD82684FF463
:1023700080539A4201D1016921B1816A9A421BD0EE
:102380004AB10AE00268816A5268C2F308020A8010
:10239000816A891C08E0026972B10268526802F021
:1023A0007F020A70816A491C8162C18D491E09043D
:1023B000090CC18503D01BE002685268F1E701688F
:1023C000CA6822F02002CA600168CA6822F48072DA
:1023D000CA6001684A6922F001024A61202180F83E
:1023E000421000214163026B012A03D0FFF746FA35
:1023F000002008BD016301680C3151E8002F22F074
:10240000100241E80023002BF5D101680A68D206CA
:1024100002D50A6849680091818DFFF756F8E7E711
:1024200070B5044600680169E26821F44051114327
:1024300001612169A0680843616908432168CA688D
:1024400041F20C639A430243CA6020684169A26961
:1024500021F44071114341611E492068884202D134
:10246000FEF75CFB01E0FEF749FB00EBC00101EB6E
:102470000012606864218000B2FBF0F3B3FBF1F35B
:102480006FF018067343B2FBF0F5B2FBF0F605EB04
:102490008305322303EB0515B5FBF1F5B6FBF1F629
:1024A00005F0F00505EB0615B2FBF0F6B2FBF0F017
:1024B000B0FBF1F06FF01802504306EB800003EB25
:1024C0000010B0FBF1F0216800F00F002844886094
:1024D00070BD0000003801402DE9F04198461746D4
:1024E0000E460446069D27E0681C25D02DB1FEF758
:1024F00047F8A0EB0800A8421ED920680C3050E82D
:10250000001F21F4D07140E80012002AF5D12068A4
:10251000143050E8001F21F0010140E80012002AA9
:10252000F5D1202084F8410084F84200002084F88E
:1025300040000320BDE8F0812068006836EA000012
:1025400004D00020B842CFD00020F3E70120F9E703
:102550000148FEF7BDBF0000FC000020FEE70000C0
:10256000014A024900F023B8D125000814000020D8
:102570000907090E002804DB00F1E02080F80014B0
:10258000704700F00F0000F1E02080F8141D704744
:1025900002E008C8121F08C1002AFAD1704770472C
:1025A000002001E001C1121F002AFBD170472DE974
:1025B000F04116460F460446002503E03946B04771
:1025C000641C6D1C20780028F8D12846BDE8F081F5
:1025D00038B504468DF800004FF4FA7301226946BD
:1025E0000248FFF74CF9204638BD0000FC000020EF
:1025F0001CB5FEF75DF9FFF7FBFCFFF7F9FAFFF7F3
:10260000CDFBFFF741FBFFF75FFBFFF7ABFBFFF7EE
:10261000FDFB04210F48FEF7F5FE0FA13223D1E99F
:102620000001CDE90001082269460D48FFF727F9AE
:102630000848FEF7D7FC0B4D0B4C012108232A78E4
:102640000846FFF78BFC012204212046FDF792FF8C
:10265000F3E700006C00002073746172740D0A00CF
:10266000FC00002000000020000C014001020203D9
:102670000405060708090A0B0C0D0E0F10100000C8
:102680000000000000000102030406070809000022
:102690000000010203040000000000000000002F01
:1026A000000000000700070000147F147F140024BE
:1026B0002A7F2A12006264081323003649552250EB
:1026C00000000503000000001C2241000000412220
:1026D0001C000014083E08140008083E080800000A
:1026E00000A0600000080808080800006060000002
:1026F000002010080402003E5149453E0000427F80
:102700004000004261514946002141454B310018CB
:1027100014127F10002745454539003C4A4949308D
:102720000001710905030036494949360006494947
:10273000291E000036360000000056360000000852
:10274000142241000014141414140000412214082F
:1027500000020151090600324959513E007C121114
:10276000127C007F49494936003E41414122007FA9
:102770004141221C007F49494941007F0909090163
:10278000003E4149497A007F0808087F0000417FE8
:102790004100002040413F01007F08142241007F9A
:1027A00040404040007F020C027F007F0408107F01
:1027B000003E4141413E007F09090906003E41516A
:1027C000215E007F09192946004649494931000127
:1027D000017F0101003F4040403F001F2040201F7B
:1027E000003F4038403F006314081463000708703E
:1027F000080700615149454300007F4141000055F1
:102800002A552A55000041417F00000402010204BC
:1028100000404040404000000102040000205454A9
:102820005478007F484444380038444444200038F9
:102830004444487F00385454541800087E0901026B
:102840000018A4A4A47C007F080404780000447D40
:102850004000004080847D00007F1028440000007C
:10286000417F4000007C04180478007C0804047850
:1028700000384444443800FC24242418001824243C
:1028800018FC007C08040408004854545420000438
:102890003F444020003C4040207C001C2040201C45
:1028A000003C4030403C004428102844001CA0A0BC
:1028B000A07C004464544C441414141414140000F8
:1028C0000000000000000000000000000000000008
:1028D00000F800000000000000333000000000108D
:1028E0000C06100C0600000000000000000040C0B4
:1028F0007840C0784000043F04043F0404000070A6
:1029000088FC08300000001820FF211E0000F0089D
:10291000F000E018000000211C031E211E0000F042
:102920000888700000001E2123241927211010168A
:102930000E00000000000000000000000000000089
:1029400000E0180402000000000718204000000208
:102950000418E0000000004020180700000040407C
:1029600080F0804040000202010F010202000000DE
:1029700000F0000000000101011F01010100000042
:1029800000000000000080B07000000000000000A7
:102990000000000000000001010101010101000030
:1029A00000000000000000303000000000000000C7
:1029B000000080601804006018060100000000E0BC
:1029C00010080810E000000F102020100F00001069
:1029D00010F8000000000020203F202000000070C0
:1029E00008080888700000302824222130000030B8
:1029F0000888884830000018202020110E000000B0
:102A0000C02010F8000000070424243F240000F830
:102A10000888880808000019212020110E0000E015
:102A2000108888180000000F112020110E000038B7
:102A30000808C83808000000003F000000000070CF
:102A4000880808887000001C222121221C0000E058
:102A500010080810E0000000312222110F000000D1
:102A600000C0C00000000000003030000000000086
:102A700000800000000000008060000000000000F6
:102A8000804020100800000102040810200040408F
:102A900040404040400004040404040404000008D2
:102AA0001020408000000020100804020100007087
:102AB00048080808F0000000003036010000C0306F
:102AC000C828E810E0000718272423140B00000092
:102AD000C038E0000000203C23020227382008F81C
:102AE000888888700000203F202020110E00C03010
:102AF000080808083800071820202010080008F8E7
:102B000008080810E000203F202020100F0008F8DF
:102B10008888E8081000203F20202320180008F8AB
:102B20008888E8081000203F200003000000C03023
:102B300008080838000007182020221E020008F8A4
:102B400008000008F808203F210101213F2000086B
:102B500008F8080800000020203F202000000000A6
:102B60000808F8080800C08080807F00000008F88E
:102B700088C028180800203F20012638200008F8C7
:102B8000080000000000203F20202020300008F82E
:102B9000F800F8F80800203F003F003F200008F848
:102BA00030C00008F808203F200007183F00E01060
:102BB00008080810E0000F10202020100F0008F86F
:102BC00008080808F000203F210101010000E01082
:102BD00008080810E0000F18242438504F0008F8A7
:102BE000888888887000203F2000030C3020007007
:102BF0008808080838000038202121221C00180805
:102C000008F8080818000000203F2000000008F81D
:102C100008000008F808001F202020201F00087866
:102C2000880000C83808000007380E010000F808C6
:102C300000F80008F800033C0700073C03000818F0
:102C400068808068180820302C03032C3020083856
:102C5000C800C83808000000203F2000000010080D
:102C60000808C83808002038262120201800000055
:102C700000FE020202000000007F40404000000C05
:102C800030C000000000000000010638C000000253
:102C90000202FE000000004040407F0000000000F3
:102CA0000402020204000000000000000000000016
:102CB0000000000000008080808080808080000212
:102CC00002040000000000000000000000000000FE
:102CD0008080808000000019242222223F2008F8F2
:102CE000008080000000003F112020110E00000035
:102CF000008080800000000E1120202011000000C4
:102D000000808088F800000E112020103F20000075
:102D1000808080800000001F222222221300008079
:102D200080F0888888180020203F202000000000C4
:102D3000808080808000006B94949493600008F8F9
:102D4000008080800000203F210000203F20008084
:102D50009898000000000020203F20200000000084
:102D600000809898000000C08080807F000008F8F4
:102D7000000080808000203F24022D3020000008C9
:102D800008F8000000000020203F20200000808084
:102D9000808080808000203F20003F20003F808096
:102DA000008080800000203F210000203F200000A4
:102DB000808080800000001F202020201F00808055
:102DC00000808000000080FFA12020110E00000084
:102DD000008080808000000E112020A0FF80808075
:102DE00080008080800020203F2120000100000022
:102DF00080808080800000332424242419000080F7
:102E000080E0808000000000001F20200000808003
:102E1000000000808000001F202020103F208080C4
:102E200080000080808000010E3008060100808054
:102E30000080008080800F300C030C300F00008079
:102E40008000808080000020312E0E3120008080A4
:102E500080000080808080818E70180601000080D4
:102E60008080808080000021302C222130000000F2
:102E70000000807C020200000000003F4040000093
:102E80000000FF00000000000000FF000000000242
:102E9000027C800000000040403F0000000000066F
:102EA0000101020204040000000000000000000014
:102EB000D02E000800000020180000009025000817
:102EC000E82E00081800002030050000A0250008AA
:102ED00000000000010000001000000000000000E1
:082EE0000024F40000000000D2
:0400000508000131BD
:00000001FF
